{
  "contractName": "Election",
  "abi": [
    {
      "constant": true,
      "inputs": [],
      "name": "candidatesCount",
      "outputs": [
        {
          "name": "",
          "type": "uint256"
        }
      ],
      "payable": false,
      "stateMutability": "view",
      "type": "function",
      "signature": "0x2d35a8a2"
    },
    {
      "constant": true,
      "inputs": [],
      "name": "chairperson",
      "outputs": [
        {
          "name": "",
          "type": "address"
        }
      ],
      "payable": false,
      "stateMutability": "view",
      "type": "function",
      "signature": "0x2e4176cf"
    },
    {
      "constant": true,
      "inputs": [
        {
          "name": "",
          "type": "uint256"
        }
      ],
      "name": "candidates",
      "outputs": [
        {
          "name": "id",
          "type": "uint256"
        },
        {
          "name": "name",
          "type": "string"
        },
        {
          "name": "voteCount",
          "type": "uint256"
        }
      ],
      "payable": false,
      "stateMutability": "view",
      "type": "function",
      "signature": "0x3477ee2e"
    },
    {
      "constant": true,
      "inputs": [],
      "name": "live",
      "outputs": [
        {
          "name": "",
          "type": "bool"
        }
      ],
      "payable": false,
      "stateMutability": "view",
      "type": "function",
      "signature": "0x957aa58c"
    },
    {
      "constant": true,
      "inputs": [
        {
          "name": "",
          "type": "address"
        }
      ],
      "name": "votes",
      "outputs": [
        {
          "name": "",
          "type": "bool"
        }
      ],
      "payable": false,
      "stateMutability": "view",
      "type": "function",
      "signature": "0xd8bff5a5"
    },
    {
      "constant": true,
      "inputs": [
        {
          "name": "",
          "type": "address"
        }
      ],
      "name": "weight",
      "outputs": [
        {
          "name": "",
          "type": "uint256"
        }
      ],
      "payable": false,
      "stateMutability": "view",
      "type": "function",
      "signature": "0xf4396e2a"
    },
    {
      "inputs": [],
      "payable": false,
      "stateMutability": "nonpayable",
      "type": "constructor",
      "signature": "constructor"
    },
    {
      "anonymous": false,
      "inputs": [
        {
          "indexed": true,
          "name": "_candidateId",
          "type": "uint256"
        }
      ],
      "name": "votedEvent",
      "type": "event",
      "signature": "0xfff3c900d938d21d0990d786e819f29b8d05c1ef587b462b939609625b684b16"
    },
    {
      "anonymous": false,
      "inputs": [
        {
          "indexed": true,
          "name": "_voterId",
          "type": "address"
        }
      ],
      "name": "voterEvent",
      "type": "event",
      "signature": "0x9b7e73f1f09a9b862dc52f57ce02e5fb3648c6674f4aa6a6c633601de82aee38"
    },
    {
      "constant": false,
      "inputs": [
        {
          "name": "_candidateId",
          "type": "uint256"
        }
      ],
      "name": "vote",
      "outputs": [],
      "payable": false,
      "stateMutability": "nonpayable",
      "type": "function",
      "signature": "0x0121b93f"
    },
    {
      "constant": false,
      "inputs": [
        {
          "name": "_voterId",
          "type": "address"
        }
      ],
      "name": "giveVoteAccess",
      "outputs": [],
      "payable": false,
      "stateMutability": "nonpayable",
      "type": "function",
      "signature": "0x457820c3"
    },
    {
      "constant": false,
      "inputs": [],
      "name": "endElection",
      "outputs": [],
      "payable": false,
      "stateMutability": "nonpayable",
      "type": "function",
      "signature": "0x59f78468"
    }
  ],
  "bytecode": "0x60806040526001600460146101000a81548160ff02191690831515021790555034801561002b57600080fd5b5033600460006101000a81548173ffffffffffffffffffffffffffffffffffffffff021916908373ffffffffffffffffffffffffffffffffffffffff1602179055506100ba6040805190810160405280600b81526020017f43616e6469646174652031000000000000000000000000000000000000000000815250610150640100000000026401000000009004565b6101076040805190810160405280600b81526020017f43616e6469646174652032000000000000000000000000000000000000000000815250610150640100000000026401000000009004565b60016000803373ffffffffffffffffffffffffffffffffffffffff1673ffffffffffffffffffffffffffffffffffffffff16815260200190815260200160002081905550610272565b600360008154809291906001019190505550606060405190810160405280600354815260200182815260200160008152506002600060035481526020019081526020016000206000820151816000015560208201518160010190805190602001906101bc9291906101cd565b506040820151816002015590505050565b828054600181600116156101000203166002900490600052602060002090601f016020900481019282601f1061020e57805160ff191683800117855561023c565b8280016001018555821561023c579182015b8281111561023b578251825591602001919060010190610220565b5b509050610249919061024d565b5090565b61026f91905b8082111561026b576000816000905550600101610253565b5090565b90565b6107c3806102816000396000f3fe608060405260043610610099576000357c0100000000000000000000000000000000000000000000000000000000900463ffffffff1680630121b93f1461009e5780632d35a8a2146100d95780632e4176cf146101045780633477ee2e1461015b578063457820c31461021d57806359f784681461026e578063957aa58c14610285578063d8bff5a5146102b4578063f4396e2a1461031d575b600080fd5b3480156100aa57600080fd5b506100d7600480360360208110156100c157600080fd5b8101908080359060200190929190505050610382565b005b3480156100e557600080fd5b506100ee6104f2565b6040518082815260200191505060405180910390f35b34801561011057600080fd5b506101196104f8565b604051808273ffffffffffffffffffffffffffffffffffffffff1673ffffffffffffffffffffffffffffffffffffffff16815260200191505060405180910390f35b34801561016757600080fd5b506101946004803603602081101561017e57600080fd5b810190808035906020019092919050505061051e565b6040518084815260200180602001838152602001828103825284818151815260200191508051906020019080838360005b838110156101e05780820151818401526020810190506101c5565b50505050905090810190601f16801561020d5780820380516001836020036101000a031916815260200191505b5094505050505060405180910390f35b34801561022957600080fd5b5061026c6004803603602081101561024057600080fd5b81019080803573ffffffffffffffffffffffffffffffffffffffff1690602001909291905050506105e0565b005b34801561027a57600080fd5b5061028361072f565b005b34801561029157600080fd5b5061029a61074c565b604051808215151515815260200191505060405180910390f35b3480156102c057600080fd5b50610303600480360360208110156102d757600080fd5b81019080803573ffffffffffffffffffffffffffffffffffffffff16906020019092919050505061075f565b604051808215151515815260200191505060405180910390f35b34801561032957600080fd5b5061036c6004803603602081101561034057600080fd5b81019080803573ffffffffffffffffffffffffffffffffffffffff16906020019092919050505061077f565b6040518082815260200191505060405180910390f35b60016000803373ffffffffffffffffffffffffffffffffffffffff1673ffffffffffffffffffffffffffffffffffffffff168152602001908152602001600020541415156103cf57600080fd5b600160003373ffffffffffffffffffffffffffffffffffffffff1673ffffffffffffffffffffffffffffffffffffffff16815260200190815260200160002060009054906101000a900460ff1615151561042857600080fd5b60008111801561043a57506003548111155b151561044557600080fd5b60018060003373ffffffffffffffffffffffffffffffffffffffff1673ffffffffffffffffffffffffffffffffffffffff16815260200190815260200160002060006101000a81548160ff0219169083151502179055506002600082815260200190815260200160002060020160008154809291906001019190505550807ffff3c900d938d21d0990d786e819f29b8d05c1ef587b462b939609625b684b1660405160405180910390a250565b60035481565b600460009054906101000a900473ffffffffffffffffffffffffffffffffffffffff1681565b6002602052806000526040600020600091509050806000015490806001018054600181600116156101000203166002900480601f0160208091040260200160405190810160405280929190818152602001828054600181600116156101000203166002900480156105d05780601f106105a5576101008083540402835291602001916105d0565b820191906000526020600020905b8154815290600101906020018083116105b357829003601f168201915b5050505050908060020154905083565b600460009054906101000a900473ffffffffffffffffffffffffffffffffffffffff1673ffffffffffffffffffffffffffffffffffffffff163373ffffffffffffffffffffffffffffffffffffffff161415156106a5576040517f08c379a000000000000000000000000000000000000000000000000000000000815260040180806020018281038252601b8152602001807f4f6e6c792061646d696e2063616e20676976652061636365737373000000000081525060200191505060405180910390fd5b60016000808373ffffffffffffffffffffffffffffffffffffffff1673ffffffffffffffffffffffffffffffffffffffff168152602001908152602001600020819055508073ffffffffffffffffffffffffffffffffffffffff167f9b7e73f1f09a9b862dc52f57ce02e5fb3648c6674f4aa6a6c633601de82aee3860405160405180910390a250565b6000600460146101000a81548160ff021916908315150217905550565b600460149054906101000a900460ff1681565b60016020528060005260406000206000915054906101000a900460ff1681565b6000602052806000526040600020600091509050548156fea165627a7a723058200235f029ada8ce245e9f9bcb0dd63ac18dbd6338ac04026df39170118509a8ad0029",
  "source": "pragma solidity >=0.4.20;\r\n\r\ncontract Election {\r\n    // Model a Candidate\r\n    struct Candidate {\r\n        uint id;\r\n        string name;\r\n        uint voteCount;\r\n    }\r\n\r\n    // struct Voter {\r\n    //     uint weight;\r\n    //     bool voted;\r\n    // }\r\n\r\n\r\n    // Store accounts that have voted\r\n    mapping(address => uint) public weight;\r\n    mapping(address => bool) public votes;\r\n    \r\n    // Store Candidates\r\n    // Fetch Candidates\r\n    mapping(uint => Candidate) public candidates;\r\n    // Store Candidates Count\r\n    uint public candidatesCount;\r\n    address public chairperson;\r\n    bool public live = true;\r\n\r\n    // voted event\r\n    event votedEvent (\r\n        uint indexed _candidateId\r\n    );\r\n\r\n     event voterEvent (\r\n        address indexed _voterId\r\n    );\r\n\r\n    constructor () public {\r\n        chairperson = msg.sender;\r\n        addCandidate(\"Candidate 1\");\r\n        addCandidate(\"Candidate 2\");\r\n        weight[msg.sender] = 1;\r\n        \r\n    }\r\n    \r\n\r\n    function addCandidate (string memory _name) private {\r\n        candidatesCount ++;\r\n        candidates[candidatesCount] = Candidate(candidatesCount, _name, 0);\r\n    }\r\n\r\n\r\n    function vote (uint _candidateId) public {\r\n\r\n        require(weight[msg.sender] ==1);\r\n\r\n        // require that they haven't voted before\r\n        require(!votes[msg.sender]);\r\n\r\n        // require a valid candidate\r\n        require(_candidateId > 0 && _candidateId <= candidatesCount);\r\n\r\n        // record that voter has voted\r\n        //voters[msg.sender].voted = true;\r\n        votes[msg.sender] = true;\r\n\r\n        // update candidate vote Count\r\n        candidates[_candidateId].voteCount ++;\r\n\r\n        // trigger voted event\r\n        emit votedEvent(_candidateId);\r\n    }\r\n\r\n    function giveVoteAccess (address _voterId) public  {\r\n\r\n        require(msg.sender==chairperson, \"Only admin can give accesss\");\r\n        //require(!voters[_voterId].voted, \"Voter has already voted\");\r\n        //addCandidate(\"Candidate 3\");\r\n        // voters[0xd1F61F5522369767F938fd053D59eB28f07ceA97] = Voter(1, true);\r\n        weight[_voterId] = 1;\r\n        emit voterEvent(_voterId);\r\n    }\r\n\r\n    function endElection() public {\r\n        live = false;\r\n    }\r\n}\r\n",
  "sourcePath": "E:/election/contracts/Election.sol",
  "compiler": {
    "name": "solc",
    "version": "0.5.0+commit.1d4f565a.Emscripten.clang"
  },
  "schemaVersion": "3.0.1",
  "updatedAt": "2023-01-13T07:24:55.068Z",
  "devdoc": {
    "methods": {}
  },
  "userdoc": {
    "methods": {}
  }
}